:100000000C94D6000C949D050C9476050C94FE007F
:100010000C94FE000C94FE000C94FE000C94FE0068
:100020000C94FE000C94FE000C94FE000C944D0603
:100030000C942D060C94FE000C94FE000C94FE0013
:100040000C942C050C94FE000C9420040C94FA03E0
:100050000C94FE000C94C4050C94FE000C94FE005D
:100060000C9471060C94FE0057495A3531303020FB
:1000700049503A20002C20492D6D65746572206F1F
:100080006E2041002C20552D6D65746572206F6EB9
:100090002041004143706F7765725F7632303138AE
:1000A00031313139207A65726F493A2000445374F6
:1000B000656D705F763230313831313139206F6E95
:1000C0002070696E2000467265652052414D3A20CD
:1000D00000433A5C55736572735C737461723034BB
:1000E00031335C446F63756D656E74735C4172642B
:1000F00075696E6F5C6D622D41432D506F7765722F
:100100005C6D622D41432D3031395C6D622D414370
:100110002D3031392E696E6F2046656220203120E6
:10012000323031392032333A35343A303200005EE1
:10013000BCE2613FDD83C29C7E20A3FD1F41009D88
:1001400023BE46DB65F88C11AF32CA57E974000054
:100150000008000201000003040700000000000086
:10016000000000000000250028002B000000000017
:10017000240027002A000000000023002600290098
:10018000040404040404040402020202020203033D
:100190000303030301020408102040800102040845
:1001A0001020010204081020EE27E22711241FBEB0
:1001B000CFEFD8E0DEBFCDBF12E0A0E0B1E0EEE6C9
:1001C000F3E602C005900D92A836B107D9F724E0F6
:1001D000A8E6B2E001C01D92A13DB207E1F710E030
:1001E000C5EDD0E004C02197FE010E948B2CC43DD8
:1001F000D107C9F70E94811E0C94AA310C9400000B
:10020000FC01538D448D252F30E0842F90E0821B1C
:10021000930B541710F0CF96089501970895FC01A1
:10022000918D828D981761F0828DDF01A80FB11D2D
:100230005D968C91928D9F5F9F73928F90E0089551
:100240008FEF9FEF0895FC01918D828D981731F00B
:10025000828DE80FF11D858D90E008958FEF9FEF5F
:100260000895FC01918D228D892F90E0805C9F4F35
:10027000821B91098F73992708958AE593E00E9464
:10028000310121E0892B09F420E0822F0895FC013F
:10029000848DDF01A80FB11DA35ABF4F2C91848D0F
:1002A00090E001968F739927848FA689B7892C9344
:1002B000A089B1898C91837080648C93938D848D97
:1002C000981306C00288F389E02D80818F7D80839A
:1002D0000895EF92FF920F931F93CF93DF93EC015A
:1002E00081E0888F9B8D8C8D981305C0E889F989F2
:1002F000808185FD26C0F62E0B8D10E00F5F1F4F0D
:100300000F731127E02E8C8DE8120CC00FB607FC7E
:10031000FACFE889F989808185FFF5CFCE010E9467
:100320004701F1CF8B8DFE01E80FF11DE35AFF4F1E
:10033000F0829FB7F8940B8FEA89FB8980818062F5
:100340000AC09FB7F894EE89FF896083E889F9892C
:1003500080818370806480839FBF81E090E0DF9123
:10036000CF911F910F91FF90EF900895CF93DF935E
:10037000EC01888D8823C9F0EA89FB89808185FD9D
:1003800005C0A889B9898C9186FD0FC00FB607FCFE
:10039000F5CF808185FFF2CFA889B9898C9185FF3F
:1003A000EDCFCE010E944701E7CFDF91CF910895B5
:1003B00080E090E0892B29F00E943D0181110C948E
:1003C00000000895833081F028F4813099F0823064
:1003D000A1F008958730A9F08830B9F08430D1F4C5
:1003E000809180008F7D03C0809180008F77809303
:1003F0008000089584B58F7702C084B58F7D84BD59
:1004000008958091B0008F7703C08091B0008F7DF8
:100410008093B00008953FB7F89480912B0390919A
:100420002C03A0912D03B0912E0326B5A89B05C0E7
:100430002F3F19F00196A11DB11D3FBFBA2FA92F63
:10044000982F8827820F911DA11DB11DBC01CD01E0
:1004500042E0660F771F881F991F4A95D1F70895CC
:100460000895109285001092840080916B02909103
:100470006C029093890080938800809125038F5FA0
:100480008093250380912503843008F455C0109291
:100490006802809179028823F9F080916902809343
:1004A0007C00109279028091210390912203A09107
:1004B0002303B091240380936F0290937002A09362
:1004C0007102B093720280911F0390912003909368
:1004D0006E0280936D021FC080916A0280937C003F
:1004E00081E0809379028091210390912203A09171
:1004F0002303B09124038093750290937602A09316
:100500007702B093780280911F039091200390931B
:1005100074028093730281E080937A021092210327
:1005200010922203109223031092240310922503A9
:100530001092200310921F03089585ED8093BC0054
:100540008091BC0084FDFCCF1092F9020895409187
:10055000D502262F30E0240F311D21323105DCF485
:100560002091F9022430C9F4FC0180E090E0861764
:1005700058F43091D5022191DC01AB54BD4FA30F4B
:10058000B11D2C930196F3CF8091D502680F609333
:10059000D50280E0089581E0089582E008950895ED
:1005A0008FEF9FEF08958FEF9FEF08958091B40232
:1005B00090E09195819591090895CF92DF92EF9205
:1005C000FF920F931F93CF93DF937C01CB018A019E
:1005D0002091B302222389F0EB016B01C40ED51EDA
:1005E000CC15DD0569F06991D701ED91FC91019081
:1005F000F081E02DC7010995F3CF642F0E94A70277
:10060000C801DF91CF911F910F91FF90EF90DF9084
:10061000CF900895CF93DF931F92CDB7DEB7698354
:100620002091B3022223D1F02091B202203240F077
:1006300021E030E0FC013383228380E090E015C0AC
:100640008091B102E82FF0E0EF56FD4F9981908341
:100650008F5F8093B1028093B20205C061E0CE014A
:1006600001960E94A70281E090E00F90DF91CF9168
:100670000895CF93FC01C48121E02093B302C0937D
:1006800090021092B1021092B2028485682B87EF1B
:1006900093E00E940A039091B202913208F045C0A3
:1006A0008091F9028111FCCF82E08093F90281E010
:1006B0008093FB028FEF8093F80210921D039093BA
:1006C0001C03A1E9B2E0ECEFF2E080E0981721F022
:1006D0002D9121938F5FFACF10921E0380911E03FC
:1006E000CC0FC82BC0931E038091FA02813061F4B5
:1006F0001092FA0280911E038093BB008091BC008F
:1007000083FDF8CF85EC01C085EE8093BC0080911D
:10071000F9028230E1F38091F8028F3F31F080914D
:10072000F802803211F08091F8021092B10210921A
:10073000B2021092B302CF9108950F931F93CF93FB
:100740008C01C62F64600E9439036C2F6B7FC80137
:100750000E94390383EC90E00197F1F7CF911F914C
:100760000F9108958F929F92AF92BF92CF92DF9296
:10077000EF92FF920F931F93CF93DF937C018B0136
:100780006C0182E0C80ED11C4701E5E08E0E911C81
:10079000C0E0D0E0F60141916F0150E060E070E010
:1007A0002AE0C8010E94B41A5C016EE2C8010E94EE
:1007B000981A8A0D9B1DC80FD91FC814D90451F768
:1007C000F701458150E060E070E02AE0C8010E9436
:1007D000B41A8C0F9D1FDF91CF911F910F91FF9045
:1007E000EF90DF90CF90BF90AF909F908F90089543
:1007F0000E94CC2E1F920F920FB60F9211242F93AE
:100800003F934F935F936F937F938F939F93AF9398
:10081000BF93EF93FF938AE593E00E944701FF9116
:10082000EF91BF91AF919F918F917F916F915F9168
:100830004F913F912F910F900FBE0F901F901895E1
:100840001F920F920FB60F9211242F938F939F93A5
:10085000EF93FF93E0916A03F0916B038081E09145
:100860007003F091710382FD12C090818091730337
:100870008F5F8F7320917403821751F0E09173039F
:10088000F0E0E65AFC4F958F8093730301C080819E
:10089000FF91EF919F918F912F910F900FBE0F902D
:1008A0001F901895CF93DF93282F30E0F901E25B7A
:1008B000FE4F8491F901EC56FE4FD491F901E058B6
:1008C000FE4FC491CC2391F081110E94E201EC2FE4
:1008D000F0E0EE0FFF1FEA58FE4FA591B491EC91A6
:1008E000ED2381E090E021F480E002C080E090E020
:1008F000DF91CF9108951F93CF93DF93282F30E09E
:10090000F901E25BFE4F8491F901EC56FE4FD49160
:10091000F901E058FE4FC491CC23C1F0162F81118C
:100920000E94E201EC2FF0E0EE0FFF1FEE59FE4FA8
:10093000A591B4919FB7F894111104C08C91D095F2
:10094000D82302C0EC91DE2BDC939FBFDF91CF91C7
:100950001F910895CF93DF9390E0FC01EC56FE4F7A
:100960002491FC01E058FE4F8491882361F190E0CE
:10097000880F991FFC01E459FE4FC591D491FC01E9
:10098000EE59FE4FA591B491611109C09FB7F8943B
:100990008881209582238883EC912E230BC06230BE
:1009A00061F49FB7F8948881322F30958323888330
:1009B000EC912E2B2C939FBF06C08FB7F894E88143
:1009C0002E2B28838FBFDF91CF9108958F929F9216
:1009D000AF92BF92CF92DF92EF92FF926B017C01B8
:1009E0000E940B024B015C01C114D104E104F1042B
:1009F000F1F00E940B02DC01CB0188199909AA09C8
:100A0000BB09883E9340A105B10570F321E0C21AED
:100A1000D108E108F10888EE880E83E0981EA11C39
:100A2000B11CC114D104E104F10419F7DDCFFF902A
:100A3000EF90DF90CF90BF90AF909F908F900895F0
:100A40002FB7F894609127037091280380912903B0
:100A500090912A032FBF08951F920F920FB60F9205
:100A600011242F933F938F939F93AF93BF938091C4
:100A7000270390912803A0912903B0912A03309174
:100A8000260323E0230F2D3720F40196A11DB11D6D
:100A900005C026E8230F0296A11DB11D2093260351
:100AA0008093270390932803A0932903B0932A03EC
:100AB00080912B0390912C03A0912D03B0912E03D4
:100AC0000196A11DB11D80932B0390932C03A0933D
:100AD0002D03B0932E03BF91AF919F918F913F91C2
:100AE0002F910F900FBE0F901F9018951F920F928D
:100AF0000FB60F9211242F933F934F935F936F93F1
:100B00007F938F939F93AF93BF93EF93FF93E09166
:100B10000201F09103010995FF91EF91BF91AF910F
:100B20009F918F917F916F915F914F913F912F9105
:100B30000F900FBE0F901F9018951F920F920FB637
:100B40000F9211242F933F934F935F936F937F9353
:100B50008F939F93AF93BF93EF93FF93E091000127
:100B6000F09101010995FF91EF91BF91AF919F9194
:100B70008F917F916F915F914F913F912F910F9046
:100B80000FBE0F901F9018951F920F920FB60F92E5
:100B90001124CF92DF92EF92FF922F933F934F93C6
:100BA0005F936F937F938F939F93AF93BF93809146
:100BB00078006091790090916802992391F170E03A
:100BC000762F6627680F711D072E000C880B990B76
:100BD00020917902222319F0725081099109C09065
:100BE0002103D0902203E0902303F09024039B0183
:100BF000AC010E947B2CC60ED71EE81EF91EC092C7
:100C00002103D0922203E0922303F09224038091E7
:100C10001F039091200301969093200380931F035C
:100C200009C080911F0390912003892B19F481E062
:100C300080936802BF91AF919F918F917F916F9147
:100C40005F914F913F912F91FF90EF90DF90CF9068
:100C50000F900FBE0F901F9018951F920F920FB616
:100C60000F9211242F933F938F939F9330910F04F2
:100C70002BB181E090E002C0880F991F3A95E2F70E
:100C80008095909582238BB99F918F913F912F9161
:100C90000F900FBE0F901F9018951F920F920FB6D6
:100CA0000F9211242F933F938F939F9380918400F1
:100CB0009091850088339A4458F430910F042BB1F9
:100CC00081E090E001C0880F3A95EAF7822B8BB95A
:100CD0009F918F913F912F910F900FBE0F901F907A
:100CE00018951F920F920FB60F9211242F933F93D6
:100CF0004F935F936F937F938F939F93AF93BF9324
:100D0000EF93FF938091B900887F803609F49CC0EF
:100D100068F5883209F45BC090F4803109F454C05E
:100D200038F4882309F4F2C0883009F44DC0F2C0C9
:100D3000883109F44CC0803209F45DC0EBC08034C6
:100D400009F468C048F4803309F455C0883309F0C9
:100D5000E1C08093F802D4C0803509F44FC08835D3
:100D600009F45DC0883409F0D5C0D2C0883909F4CF
:100D7000C3C0A8F4883709F467C038F4883609F48A
:100D800063C0803709F460C0C5C0883809F4B4C0B6
:100D9000803909F45FC0803809F0BCC05BC0803B7B
:100DA00009F484C038F4803A09F466C0883A09F43A
:100DB0007DC0B0C0803C09F4A3C0883C09F4A0C049
:100DC000883B09F486C0A6C080911E0310C0909194
:100DD0001D0380911C03981770F5E0911D0381E0BD
:100DE0008E0F80931D03F0E0E450FD4F80818093CF
:100DF000BB0085EC82C08093F8028AC0E0911D039D
:100E000081E08E0F80931D038091BB00F0E0E450E1
:100E1000FD4F808390911D0380911C036AC0E09177
:100E20001D0381E08E0F80931D038091BB00F0E0D5
:100E3000E450FD4F80838091FB02811169C081E005
:100E40008093FA0284EA5DC083E08093F9021092F5
:100E5000F702CFCF8091F702803208F04DC0E091C9
:100E6000F70281E08E0F8093F7028091BB00F0E0E3
:100E7000E952FD4F8083BDCF85EC8093BC0010927A
:100E8000F9028091F702803230F4E091F702F0E04D
:100E9000E952FD4F10826091F70270E087ED92E019
:100EA000E0E0F0E009951092F70234C084E080930E
:100EB000F9021092D6021092D502E0E0F0E0099516
:100EC0008091D502811105C081E08093D5021092F6
:100ED000B502E091D60281E08E0F8093D602F0E059
:100EE000EB54FD4F80818093BB009091D60280919E
:100EF000D502981708F47DCF85E88093BC000AC01E
:100F000085EC8093BC001092F90204C01092F802A4
:100F10000E949D02FF91EF91BF91AF919F918F91A0
:100F20007F916F915F914F913F912F910F900FBEE5
:100F30000F901F901895FF920F931F93CF93DF93FD
:100F40008C01D62FC42F862F807FF82EF42A6F2D88
:100F5000C8010E9439036F2DC8010E949D0380E1E2
:100F6000D89FA0011124C42B6C2FC8010E94390303
:100F70006C2FC801DF91CF911F910F91FF900C94BE
:100F80009D0341E00E949B0781E090E00895FC01F1
:100F900020812EBD9B012150310941F051810DB4BA
:100FA00007FEFDCF4EB55EBD4193F5CF615071098F
:100FB000FC01E60FF71F0DB407FEFDCF8EB5808351
:100FC0000895CF93C82F462F61E070E00E94CA0CAD
:100FD00061E070E08C2F0E94E80C8111F9CFCF9175
:100FE0000895AF92BF92CF92DF92EF92FF920F934C
:100FF0001F93CF93DF9300D000D0CDB7DEB78C0125
:101000006B017A01809156038333F1F45B0168012F
:10101000C40ED51E0C151D0509F460C00E9483097D
:101020008FE00E94A109812F0E94A109802F0E94B8
:10103000A1090F5F1F4F80E00E94A109F501819374
:101040005F010E947909E6CF8433F1F40E9483099D
:1010500019830A838F2D8F778B83EC8264E070E095
:10106000CE0101960E94C707A70160E070E0C601AB
:101070000E94DA2EE114F10421F0B701C6010E94AA
:10108000C7070E9479092AC00E9483090F3F1105F2
:1010900009F020F419820A831B821DC017FD0BC0C2
:1010A00019820A8333E0169507953A95E1F7007E99
:1010B00008600B8310C0C80126E0969587952A9595
:1010C000E1F719830A83807E0115104C10F48061CA
:1010D00001C088618B8363E070E0C2CFC7010F90CD
:1010E0000F900F900F90DF91CF911F910F91FF9074
:1010F000EF90DF90CF90BF90AF900895209156036E
:1011000090E0233311F40C9601C04896982F990F64
:10111000990F990F80E00895CF93DF931F92CDB779
:10112000DEB76983DC01ED91FC910280F381E02D53
:1011300041E050E0BE016F5F7F4F09950F90DF9156
:10114000CF910895EF92FF921F93CF93DF9300D03A
:10115000CDB7DEB7182F22E030E0AE014F5F5F4F12
:1011600060E270E00E943113E980FA80FE24EF24EF
:10117000FE2422E030E0AE014F5F5F4F60E270E09E
:10118000812F0E94311389819A8198278927982776
:10119000E816F90611F07C01ECCF87E0189FF0010A
:1011A0001124E15DFC4FF582E482C7010F900F909E
:1011B000DF91CF911F91FF90EF900895FF920F93D1
:1011C0001F93CF93DF9300D0CDB7DEB7F82E22E088
:1011D00030E0AE014F5F5F4F66E270E00E94311376
:1011E00009811A8110270127102722E030E0AE0183
:1011F0004F5F5F4F66E270E08F2D0E94311389814F
:101200009A819827892798270817190711F08C01C8
:10121000ECCFC8010F900F90DF91CF911F910F91EC
:10122000FF900895AF92BF92CF92DF92EF92FF921C
:101230000F931F93CF93DF93CDB7DEB7AF970FB662
:10124000F894DEBF0FBECDBF8C015B016A01CE01F9
:1012500001960E94541982E0E82E82E0F82EFBA647
:10126000EAA61CA61DA61EA61FA6809105049091A5
:101270000604A0910704B09108048EA39FA3A8A719
:10128000B9A78B839C83AD83BE8318861F82AE0172
:10129000465D5F4FB501CE0101960E94F716813081
:1012A0009105B1F4D801ED91FC910488F589E02D08
:1012B000FDA2ECA28CA59DA5AEA5BFA58EA39FA364
:1012C000A8A7B9A7A601BE016C5D7F4FC80109950B
:1012D000AF960FB6F894DEBF0FBECDBFDF91CF91B2
:1012E0001F910F91FF90EF90DF90CF90BF90AF9044
:1012F0000895E0915403F091550390818091530338
:10130000892B80830895E0915403F09155039081D7
:10131000809153038095892380830895CF93DF9331
:101320001F92CDB7DEB741E050E0BE016F5F7F4F47
:1013300080E090E00E94F10789810F90DF91CF91CA
:1013400008958EBD00000DB407FEFDCF8EB5089543
:10135000AF92BF92CF92DF92EF92FF920F931F93C3
:10136000CF93DF93CDB7DEB728970FB6F894DEBFE3
:101370000FBECDBF8C017B016A0180915603833380
:10138000E1F45801A40EB51E0A151B0509F48BC023
:101390000E94830980EF0E94A109812F0E94A10968
:1013A000802F0E94A1090F5F1F4FF70181917F01DC
:1013B0000E94A1090E947909E7CF843321F50E9498
:1013C000830919830A838D2D80688B83CC8264E026
:1013D00070E0CE0101960E94C70787010C0D1D1D0C
:1013E000E016F10669F0F70181917F010E94A109E1
:1013F000F7CFB6016D5F7F4FCE0101960E94C70700
:101400000E94790950C00E9483090F3F110509F01D
:1014100020F419820A8384E01CC017FD0BC01982D6
:101420000A8333E0169507953A95E1F7007E0C6044
:101430000B8310C0C80126E0969587952A95E1F7A1
:1014400019830A83807E0115104C10F4846101C059
:101450008C618B8326E0C216D10498F420E0822FA1
:1014600090E08C159D0528F6E4E0F0E0EC0FFD1F00
:10147000E80FF91FD701A80FB91F8C9180832F5F48
:10148000EECF63E070E0CE0101960E94C7078701AE
:101490000C0D1D1DF70181917F010E94A109E0162D
:1014A000F106C1F7ADCFC60128960FB6F894DEBF9E
:1014B0000FBECDBFDF91CF911F910F91FF90EF90A5
:1014C000DF90CF90BF90AF900895CF93DF931F929E
:1014D000CDB7DEB7898341E050E0BE016F5F7F4F3B
:1014E00080E090E00E94A8090F90DF91CF910895CD
:1014F000CF93DF9380E80E94650AC4E1D0E00E94A8
:101500008E09882351F061E070E080E090E00E9455
:10151000E6042197A1F780E001C081E0DF91CF913F
:1015200008951F93CF93DF9300D0CDB7DEB7182F68
:10153000CE0101960E947B1E89819A810E944413EC
:10154000812F0E947E0827E0129FF0011124E15DA7
:10155000FC4F22813381377041E050E0BE016F5F64
:101560007F4F820F931F0E94F1070E9443138981CE
:101570000F900F90DF91CF911F910895FC01808D06
:10158000843040F4218D328D232B21F00E94910A6A
:1015900090E008958FEF9FEF0895EF92FF920F93E1
:1015A0001F93CF93DF9300D0CDB7DEB7482F87E0EE
:1015B000489F90011124F901E15DFC4F7F0180817A
:1015C00091810097B9F4142FCE0101960E947B1EE1
:1015D00089819A810E944413812F0E94DE088C0128
:1015E0000E944313F70186819801281B3109C90124
:1015F000318320830F900F90DF91CF911F910F9136
:10160000FF90EF9008951F93CF93DF9300D0CDB755
:10161000DEB7182FCE0101960E947B1E89819A8128
:101620000E94441368E070E0812F0E94E1070E944D
:1016300043130F900F90DF91CF911F9108951F9347
:10164000CF93DF9300D0CDB7DEB7182FCE01019630
:101650000E947B1E89819A810E94441360E170E0A0
:10166000812F0E94E1070E9443130F900F90DF919A
:10167000CF911F910895CF92DF92EF92FF920F9337
:101680001F93CF93DF9300D000D000D0CDB7DEB74B
:101690008C016B017A01FC01808D843010F40E9472
:1016A0001F0B82E092E09A838983F6018281938105
:1016B000A481B5818B839C83AD83BE83B701CE01AA
:1016C00001960E947419F801808F843030F4F586F9
:1016D000E486128E118E81E001C080E026960FB65E
:1016E000F894DEBF0FBECDBFDF91CF911F910F9158
:1016F000FF90EF90DF90CF900895DA01909157031B
:10170000E92FF0E0FE2FEE27E60FF71F90E0982F6D
:101710008827A901BD018E0F9F1F0C94A8097F92F5
:101720008F929F92AF92BF92CF92DF92EF92FF92F1
:101730000F931F93CF93DF9300D0CDB7DEB7782EF2
:101740008B014A01590122E030E0AE014F5F5F4F4B
:1017500064E270E00E943113E980FA80FE24EF24F5
:10176000FE24E00EF11E9701377040915603072DBD
:1017700010E0C801433311F4089601C04096982F39
:101780008827990F990F990F820F931F473319F4E8
:10179000A501B40120C0A9014A0D5B1D413058408C
:1017A000B8F360E078E06B01C21AD30AA601B40175
:1017B0000E94A809A5014C195D09B4016C0D7D1D9D
:1017C00080915603833339F5085F1F4F902F990F8F
:1017D000990F990F80E00E94A809EA0CFB1CF9827E
:1017E000EA8222E030E0AE014F5F5F4F64E270E0DA
:1017F000872D0E947D0B0F900F90DF91CF911F914D
:101800000F91FF90EF90DF90CF90BF90AF909F909F
:101810008F907F900895005F1F4FD8CF7F928F9257
:101820009F92AF92BF92CF92DF92EF92FF920F936F
:101830001F93CF93DF9300D0CDB7DEB77C014B0170
:10184000742EC52EFC01A688B788D08CCE010196D7
:101850000E947B1E89819A810E9444138D2D0E94D3
:10186000A208072D1C2D8017910708F48C01980100
:10187000A401B5018D2D0E948F0B0E944313F70127
:1018800086899789800F911F978B868BC8010F904F
:101890000F90DF91CF911F910F91FF90EF90DF900C
:1018A000CF90BF90AF909F908F907F900895CF93EF
:1018B000DF9300D0CDB7DEB779836A8322E030E0D2
:1018C000AE014F5F5F4F60E170E00E947D0B0F90B3
:1018D0000F90DF91CF910895CF93DF9300D0CDB7D4
:1018E000DEB779836A8322E030E0AE014F5F5F4F5D
:1018F00064E070E00E947D0B0F900F90DF91CF911C
:101900000895DF92EF92FF920F931F93CF93DF938F
:1019100000D0CDB7DEB7FB01DC0157961C921E92BA
:1019200056972281211109C02381211106C02481EB
:10193000211103C02581222309F141155105F1F040
:101940007A018F01FC01D08CCE0101960E947B1E92
:1019500089819A810E944413A8014E5F5F4F24E061
:1019600030E06CE070E08D2D0E947D0BB7018D2D75
:101970000E94570C0E94431381E001C080E090E078
:101980000F900F90DF91CF911F910F91FF90EF90EB
:10199000DF900895CF93DF931F92CDB7DEB790917C
:1019A0005703292F30E0322F2227260F371F90E0D0
:1019B000982F8827498341E050E0BE016F5F7F4F39
:1019C000820F931F0E94A8090F90DF91CF91089575
:1019D000CF93DF931F92CDB7DEB790915703292F96
:1019E00030E0322F2227260F371F90E0982F8827CC
:1019F00041E050E0BE016F5F7F4F820F931F0E9456
:101A0000F10789810F90DF91CF91089563E070E035
:101A10000C94E80CAF92BF92CF92DF92EF92FF92BC
:101A20000F931F93CF93DF9300D000D000D0CDB79A
:101A3000DEB7082F6B01CE0101960E947B1E8981C3
:101A40009A810E9444139E012F5F3F4F79015901F3
:101A500010E0812F0E94060DF50181935F0188231C
:101A6000D1F01F5F1430A9F710E0F70181917F01D9
:101A70008D3161F0883151F08A51823038F01F5F2A
:101A8000143099F70E94431384E063C060E170E072
:101A9000812F0E94E107E12EF12CF701EE0FFF1FCD
:101AA000E55BFC4F1182108283EE93E00197F1F722
:101AB000402F60E070E0812F0E94CA0C4FEF62E07F
:101AC00070E0812F0E94CA0CC114D10411F0B6013C
:101AD00013C0809128019091290101968115F0ECA5
:101AE0009F0710F480E090EC9093290180932801E7
:101AF0006091280170912901812F0E946C0C61E096
:101B000070E0812F0E94E10727E02E9DC0012F9DEC
:101B1000900D11249C01215D3C4F7901F901118246
:101B2000108222E030E0AE014B5F5F4F68E270E070
:101B3000812F0E9431138D819E81982789279827B4
:101B4000F701938382831682158214820E944313C5
:101B5000812F26960FB6F894DEBF0FBECDBFDF9162
:101B6000CF911F910F91FF90EF90DF90CF90BF909A
:101B7000AF900895FF920F931F93CF93DF9300D000
:101B8000CDB7DEB7F82ECE0101960E947B1E89816B
:101B90009A810E9444138F2D0E94A2088C018F2DE0
:101BA0000E94060DF82E0E94431387E1F81631F0CB
:101BB0008CE1F81619F080E090E001C0C8010F90A8
:101BC0000F90DF91CF911F910F91FF900895AF92E9
:101BD000BF92CF92DF92EF92FF920F931F93CF931A
:101BE000DF9300D0CDB7DEB7F82E6B018A0141300C
:101BF000584010F000E018E0CE0101960E947B1ED4
:101C000089819A810E9444138F2D0E94A2085C0151
:101C10008F2D0E94060DE82E0E94431387E1E816DF
:101C200019F08CE1E81204C0A016B10628F302C036
:101C300000E010E0CE0101960E947B1E89819A810E
:101C40000E9444139801A60160E070E08F2D0E946D
:101C50008F0B60E270E08F2D0E94E10762E070E080
:101C60008F2D0E94E80C84FD15C08F2D0E94060D5B
:101C7000811105C00E94431380E090E014C00E94CF
:101C80004313CE0101960E947B1E89819A810E9496
:101C90004413E4CF40E162E070E08F2D0E94CA0C53
:101CA0000E944313C8010F900F90DF91CF911F91B5
:101CB0000F91FF90EF90DF90CF90BF90AF9008957D
:101CC0004F925F927F928F929F92AF92BF92CF92EC
:101CD000DF92EF92FF920F931F93CF93DF9300D089
:101CE000CDB7DEB7782E6B014A01A82EB12C27E0C4
:101CF000829FC0011124AC01415D5C4F7A01FA0161
:101D000000811181CE0101960E947B1E89819A81FA
:101D10000E9444130815190554F4872D0E94DE080B
:101D2000F70126818C01021B110911830083011523
:101D3000110599F4872D0E94060D843109F480C0A5
:101D4000882309F47DC001E010E08C3111F400E03B
:101D500010E011950195110973C0801691060CF4DD
:101D6000840187E08A9DF0018B9DF00D1124E15DD7
:101D7000FC4FE280F380C114D10459F12701F7E050
:101D80005F22872D0E947E08840D951D20915603A9
:101D9000273319F4A801B6011AC09801240D351D86
:101DA00021303840B8F320E038E049018418950824
:101DB000A401B6010E94F1072601480C591C6801D4
:101DC000C818D908872D0E947E08A601B2010E947A
:101DD000F107E00EF11E87E08A9DF0018B9DF00D6A
:101DE0001124E15DFC4FF382E28280819181801BAE
:101DF000910B918380832681A801420F511D4A3F98
:101E0000510510F4892BD9F487E08A9DF0018B9D50
:101E1000F00D1124E15DFC4F1682F982EA8222E086
:101E200030E0AE014F5F5F4F68E270E0872D0E94A7
:101E30007D0B60E470E0872D0E94E10701C04683BE
:101E40000E944313C8010F900F90DF91CF911F9113
:101E50000F91FF90EF90DF90CF90BF90AF909F9049
:101E60008F907F905F904F900895CF93DF93FC0108
:101E7000218D328D2115310519F48FEF9FEF11C09F
:101E8000EC014217530708F0A901888D0E94600EEB
:101E90001816190694F7298D3A8D281B390B3A8F9D
:101EA000298FDF91CF9108950F931F93CF93DF93E5
:101EB0001F92CDB7DEB7FC01218D328D232B61F04F
:101EC0008C0141E050E0BE016F5F7F4F808D0E942A
:101ED000600E181619061CF08FEF9FEF08C0F8016E
:101EE000818D928D0197928F818F898190E00F90E3
:101EF000DF91CF911F910F9108950F931F93CF936F
:101F0000DF93CDB7DEB728970FB6F894DEBF0FBECC
:101F1000CDBF8C01D80159964D915C915A974115CE
:101F2000510551F0ED91FC91048CF58DE02D60E0B0
:101F300070E0C8010995EECFF801808D0E94CD0AAE
:101F4000892B51F148E050E0BE016F5F7F4FD8010F
:101F500058968C910E94600E18161906FCF4D80150
:101F6000509684E0FE01319601900D928A95E1F73A
:101F70008D8190E0982F88272E81820F911DF80186
:101F8000958B848B8F8190E0982F88272885820FEE
:101F9000911D928F818F02C080E090E028960FB64D
:101FA000F894DEBF0FBECDBFDF91CF911F910F918F
:101FB00008951F93CF93DF9300D0CDB7DEB7182FCE
:101FC000CE0101960E947B1E89819A810E94441352
:101FD000812F0E94060D182F0E944313812F0F900E
:101FE0000F90DF91CF911F9108951F93CF93DF93AF
:101FF00000D0CDB7DEB7FC01108DCE0101960E9456
:102000007B1E89819A810E94441360E270E0812FD7
:102010000E94E10762E070E0812F0E94E80C84FDDD
:102020001CC062E070E0812F0E94E80C83FF0AC0B0
:1020300048E162E070E0812F0E94CA0C0E944313C5
:1020400080E014C00E944313CE0101960E947B1EC3
:1020500089819A810E944413DDCF40E162E070E003
:10206000812F0E94CA0C0E94431381E090E00F90E0
:102070000F90DF91CF911F910895FC01818D928D7A
:102080000895CF93DF931F92CDB7DEB76983DC014C
:10209000ED91FC910280F381E02D41E050E0BE0122
:1020A0006F5F7F4F09950F90DF91CF910895FC01ED
:1020B0009485FB018485981303C081E0943008F077
:1020C00080E00895CF93DF931F92CDB7DEB7698389
:1020D000DC01ED91FC910280F381E02D41E050E0C4
:1020E000BE016F5F7F4F09950F90DF91CF910895EB
:1020F000FC01768765870895DC01ED91FC91068CE3
:10210000F78DE02D099591E089270895862F089590
:1021100081E08627089521E0FC018485843008F061
:1021200020E0822F0895FC01848595850895FC01A7
:1021300084899589089522E032E0FC01318320836F
:10214000FB014089518962897389FC014283538371
:10215000648375830895DC01ED91FC91048CF58D09
:10216000E02D099480E00895089580E090E00895BE
:10217000CF93DF93FC01808D843028F4EF010E941F
:102180001F0B84E0888FDF91CF9108950F931F93E9
:10219000CF93DF93EC018B01888D843010F40E9483
:1021A0001F0B80915603882329F0B80182E00E941A
:1021B0000A0D01C084E0888F843030F41D870C87BD
:1021C0001A8E198E81E001C080E0DF91CF911F91BE
:1021D0000F9108950F931F93CF93DF93FC01848594
:1021E000843068F4C52FD42F8F010E94E70D00972B
:1021F00049F421E030E0F8013383228305C080E018
:1022000090E002C08D2F9C2FDF91CF911F910F91F5
:102210000895EF92FF920F931F93CF937C010BE4ED
:1022200013E0C0E0F801219131918F01F701848121
:1022300095812817390729F0CF5FC43099F780E0DE
:1022400006C08C2F0E94D90F8431B1F781E0CF9165
:102250001F910F91FF90EF900895CF93DF93EC01C2
:102260008C858430C8F40E94D90F843181F0882392
:1022700071F0883161F08C3161F4E881F98100847A
:10228000F185E02DCE01099521E0892B19F420E09C
:1022900001C021E0822F01C080E0DF91CF9108953D
:1022A000FC018485843010F40C94CD0A80E090E029
:1022B0000895CF92DF92EF92FF92CF93DF93EC01DC
:1022C0008C85843038F50E94030B0E9420056B0139
:1022D0007C018C850E94D90F8823D1F061E070E0E9
:1022E00080E090E00E94E6040E942005AB01BC0162
:1022F0004C195D096E097F098D859E85A0E0B0E0CF
:10230000481759076A077B0720F38C850E941F0B2B
:1023100084E08C87DF91CF91FF90EF90DF90CF909A
:102320000895CF93DF93EC018C85843060F40E9494
:10233000D90F873111F08C3131F48C850E94BA0DA0
:102340008115984088F3DF91CF910895FC01848531
:10235000843010F40C94BA0D80E090E00895CF938F
:10236000DF931F92CDB7DEB741E050E0BE016F5F53
:102370007F4FFC0184850E94600E181619061CF41C
:10238000898190E002C08FEF9FEF0F90DF91CF9196
:102390000895FC018485843010F40C94600E80E074
:1023A00090E00895CF93DF93FC012485243018F04A
:1023B0008FEF9FEF0EC0EC010190F081E02D0084C3
:1023C000F185E02D0995892B99F38C850E94910A5E
:1023D00090E0DF91CF910895CF92DF92EF92FF923C
:1023E0000F931F93CF93DF93CDB7DEB7AF970FB6A1
:1023F000F894DEBF0FBECDBF8C016B017A01CE0118
:1024000001960E94541982E092E09BA78AA71CA61D
:102410001DA61EA61FA6D8011C968C91843060F4C0
:102420000E94D90F882321F0F80184850E94030BB4
:1024300084E0D8011C968C93809105049091060449
:10244000A0910704B09108048EA39FA3A8A7B9A7E1
:102450008B839C83AD83BE8318861F82AE01465D4D
:102460005F4FB601CE0101960E94F7160097C1F0AA
:10247000D801ED91FC910684F785E02D82E092E091
:102480009DA38CA38CA59DA5AEA5BFA58EA39FA340
:10249000A8A7B9A7A701BE016C5D7F4FC801099528
:1024A000AF960FB6F894DEBF0FBECDBFDF91CF91D0
:1024B0001F910F91FF90EF90DF90CF900895AF9212
:1024C000BF92CF92DF92EF92FF920F931F93CF9321
:1024D000DF93EC016B0180915603811111C01B82C7
:1024E0001A8288EE93E0A0E0B0E08C839D83AE83F7
:1024F000BF8388E391E09983888384E08C874FC011
:102500008BE4E82E83E0F82E10E094E0B92EA12CA5
:10251000D7012D913C91F6018481958128173907C7
:10252000F9F4812F0E94D90F082F873111F08C31D7
:1025300059F4812F0E94CD0A892B71F40C3181F45A
:10254000812F0E94030B0CC0843141F0811108C01F
:10255000D7011D921C9204C0B12E02C0AA24A394DC
:102560001F5FB2E0EB0EF11C143091F6A11008C011
:10257000D601ED91FC910084F185E02DC60109950D
:102580001B821A8288EE93E0A0E0B0E08C839D83EA
:10259000AE83BF8388E391E099838883BC8688EE0D
:1025A00093E09E878D87CE01DF91CF911F910F9190
:1025B000FF90EF90DF90CF90BF90AF9008958F92F3
:1025C0009F92AF92BF92CF92DF92FF920F931F9391
:1025D000CF93DF93CDB7DEB72F970FB6F894DEBF5A
:1025E0000FBECDBF20915603222339F18A015B0132
:1025F0006C01BC01CE0101960E945F128BE4882E13
:1026000083E0982EF12CF401219131914F01F601D4
:10261000848195812817390751F48F2D0E94D90F95
:10262000873129F4A801B5018F2D0E94E70DF3949D
:10263000F4E0FF12E8CFC80102C080E090E02F96DE
:102640000FB6F894DEBF0FBECDBFDF91CF911F91C3
:102650000F91FF90DF90CF90BF90AF909F908F90A1
:102660000895DA0190915703E92FF0E0FE2FEE274D
:10267000E60FF71F90E0982F8827A901BD018E0F64
:102680009F1F0C94F10708958CBD9DBD0895EF9296
:10269000FF921F93CF93DF9300D0CDB7DEB7209189
:1026A0005603222359F17C01FC016481758181E28A
:1026B0000E940A0D182F843008F5CE0101960E9461
:1026C0007B1E89819A810E944413812F0E94060DEE
:1026D000833189F462E070E0812F0E94E107F70105
:1026E00084819581E12FF0E0EE0FFF1FE55BFC4F49
:1026F0009183808303C0812F0E94030B0F900F9062
:10270000DF91CF911F91FF90EF9008950F931F934A
:10271000CF93DF9300D0CDB7DEB7FC012485243002
:10272000D0F48C01CE0101960E947B1E89819A8192
:102730000E94441322E030E0AE014F5F5F4F60E142
:1027400070E0F80184850E94311389819A8198276D
:102750008927982702C080E090E00F900F90DF91CA
:10276000CF911F910F910895EF92FF920F931F93B6
:10277000CF93DF9300D000D0CDB7DEB78C017B01C3
:10278000FB018485843050F082E092E0F80191836F
:102790008083128213821482158220C0CE0101969A
:1027A0000E947B1E89819A810E94441324E030E0BC
:1027B000AE014F5F5F4F6CE070E0F70184850E94CF
:1027C000311382E092E0F8019183808389819A81BC
:1027D000AB81BC8182839383A483B583C8010F90AE
:1027E0000F900F900F90DF91CF911F910F91FF905D
:1027F000EF9008950F931F93CF93DF9300D0CDB741
:10280000DEB7FC0124852430D0F48C01CE01019682
:102810000E947B1E89819A810E94441322E030E04D
:10282000AE014F5F5F4F64E070E0F80184850E9465
:10283000311389819A8198278927982702C080E0DF
:1028400090E00F900F90DF91CF911F910F9108951D
:10285000AF92BF92CF92DF92EF92FF920F931F93AE
:10286000CF93DF9300D0CDB7DEB78C016B015A0157
:10287000FC018485843058F40E94D90F882321F00C
:10288000F80184850E94030B84E0F8018487F60137
:1028900082819381A481B5810097A105B10509F4D6
:1028A00062C08F3F9F4FAF4FBF4F09F45CC0809114
:1028B0005603882339F060E070E081E20E940A0D3F
:1028C000F82E02C084E0F82EF801F486F3E0FF153C
:1028D00008F449C0CE0101960E947B1E89819A812D
:1028E0000E944413A6014E5F5F4F24E030E06CE08D
:1028F00070E08F2D0E947D0BB5018F2D0E94570C2B
:1029000064E070E08F2D0E94E1070E9420056B01BA
:102910007C01F80184850E94D90F873139F18C310F
:1029200029F1882301F10E942005AB01BC014C195B
:102930005D096E097F09F80185859685A0E0B0E004
:1029400084179507A607B70738F061E070E080E0CC
:1029500090E00E94E604DDCFF80184850E941F0B01
:1029600084E0F801848780E090E002C081E090E09C
:102970000F900F90DF91CF911F910F91FF90EF90EB
:10298000DF90CF90BF90AF9008950F931F93CF9398
:10299000DF9300D0CDB7DEB78C0182E092E0F80182
:1029A000918380831282138214821582CE01019654
:1029B0000E947B1E89819A810E944413B8016E5F38
:1029C0007F4F44E050E08FE090E00E94F107C801A3
:1029D0000F900F90DF91CF911F910F9108958091EB
:1029E00083028823F9F080917C028F9380917B028F
:1029F0008F9380917E028F9380917D028F9386E2E8
:102A000092E09F938F9387E191E09F938F930E9431
:102A1000F72E8DB79EB708960FB6F8949EBF0FBEDF
:102A20008DBF3AC08FEF8F938FED8F93809180028F
:102A30008F9380917F028F93809182028F938091F8
:102A400081028F93809127048F93809126048F9326
:102A500085E392E09F938F9386E091E09F938F931D
:102A60000E94F72E1F921F92809129048F938091CC
:102A700028048F9389E492E09F938F9387E191E0FC
:102A80009F938F930E94F72E8DB79EB744960FB6F3
:102A9000F8949EBF0FBE8DBF60E080E00E94471D8E
:102AA00066E071E08AE894E00E94FD1A61E080E04F
:102AB0000E94471D67E171E08AE894E00E94FD1AD8
:102AC00080910501811126C080918302811122C06D
:102AD00061E08AE00E94471D60919004862F826029
:102AE000809390046A6040E08AE894E00E949B072B
:102AF00060919004862F816080939004696040E02B
:102B00008AE894E00E949B0769E572E08AE894E015
:102B10000C94FD1A8091040181112AC080918302D6
:102B20008111089561E08AE00E94471D60E672E02D
:102B30008AE894E00E94FD1A60919004862F8260DA
:102B4000809390046A6040E08AE894E00E949B07CA
:102B500060919004862F816080939004696040E0CA
:102B60008AE894E00E949B0760E089E00C94471D8E
:102B70000895CF92DF92EF92FF920F931F93CF931E
:102B8000DF936C017A018B01C0E0D0E0CE15DF0548
:102B900081F0D8016D918D01D601ED91FC910190EC
:102BA000F081E02DC6010995892B11F02196EECF19
:102BB0007E01C701DF91CF911F910F91FF90EF90A0
:102BC000DF90CF900895BF92CF92DF92EF92FF9265
:102BD0000F931F93CF93DF93CDB7DEB728970FB630
:102BE000F894DEBF0FBECDBF10924E041092500479
:102BF00010924F04EEE4F4E086E4C82E84E0D82E70
:102C00001292CE16DF06E1F70E94081E811108C05D
:102C100010924E041092500410924F0480E064C051
:102C200060E080EF0E94D61D01E0E12CB12C11E0A4
:102C30000E94561EF82E0E94561E91E0F91203C003
:102C40008130C1F436C02E2D30E0F8121EC08091C4
:102C50004E04181738F4F901E95CFB4F878580238F
:102C600049F402C0811731F0F12C193068F4109347
:102C70004F040AC0EE2DF0E0E95CFB4F8785802B06
:102C80008787FF24F39409C0B12EF901E95CFB4F5B
:102C90009785802F8095892387878F2D0E94A61D79
:102CA0001F5F000F11F4E39401E0A7E0AE1508F0F8
:102CB000BFCF113408F4ACCFB0924E04B11003C0B2
:102CC00081E08093500480914604882309F4A0CFCA
:102CD000FE013196CE010996D6012D916D01219309
:102CE0008E179F07C9F781E0809341040E94081E58
:102CF00060E08CEC0E94D61D60E084EB0E94D61D43
:102D00000E94561E811104C081E08093420402C0DB
:102D1000109242040E94200560933B0470933C048F
:102D200080933D0490933E0480914104882389F070
:102D300028960FB6F894DEBF0FBECDBFDF91CF91BE
:102D40001F910F91FF90EF90DF90CF90BF900C9468
:102D50003F1E80E090E0A6ECB2EC809337049093A5
:102D60003804A0933904B0933A0428960FB6F89427
:102D7000DEBF0FBECDBFDF91CF911F910F91FF90AE
:102D8000EF90DF90CF90BF9008950F931F93CF9354
:102D9000DF93182F062FC4E5D4E08C819D810E941B
:102DA000362A82E08E8382E090E00E949E29FC0118
:102DB0009D838C8310581083018383E08F83DF9180
:102DC000CF911F910F91089540E061E08AE894E06F
:102DD0000E949B078BE39FE10197F1F78091930499
:102DE000882321F060E080E00C94471D08954F9205
:102DF0005F926F927F928F929F92AF92BF92CF928B
:102E0000DF92EF92FF920F931F93CF93DF93CDB793
:102E1000DEB763970FB6F894DEBF0FBECDBF7C015F
:102E20005B013A01FB0120E080E090E06AE0319133
:102E3000332309F140ED430F4A3080F4689FA0012D
:102E4000699F500D1124CA01C097830F911D37FD52
:102E50009A958F3F910559F350F313C03E3289F490
:102E6000233079F0D301A20FB11D12968C932F5FFE
:102E700080E090E0DCCF233021F4F301858381E012
:102E800021C0F701428153816481758180910B04D7
:102E900090910C04A0910D04B0910E0448175907AD
:102EA0006A077B0709F491C10E9420058701085F2A
:102EB0001F4F6F7077277C5FC8010E94C61081305A
:102EC00019F080E090E0D9C182E092E09A83898392
:102ED000F70182819381A481B5818B839C83AD832B
:102EE000BE8345E350E0BE016F5F7F4FC8010E9483
:102EF000810C892B19F4C12CD12C62C10E942005B0
:102F0000F7017783668342E050E0B7016A5F7F4F45
:102F1000C8010E940E0C81E090E09A83898342E010
:102F200050E0BE016F5F7F4FC8010E940E0C80E031
:102F300091E09A83898342E050E0BE016F5F7F4F4A
:102F4000C8010E940E0C1A82198242E050E0BE01B4
:102F50006F5F7F4FC8010E940E0C42E050E0BE013F
:102F60006F5F7F4FC8010E940E0C42E050E0BE012F
:102F70006F5F7F4FC8010E940E0C4501F5018081F3
:102F8000882301F164015601F60181912F01882304
:102F900021F08E3211F06201F6CFC818D9081C1446
:102FA0001D0474F4CD8641E050E0BE01635F7F4FA5
:102FB000C8010E940E0CA601B401C8010E940E0CAB
:102FC0004201DCCF1D8641E050E0BE01635F7F4FD0
:102FD000C8010E940E0CC12CDD24D394DA82C98270
:102FE00042E050E0BE016F5F7F4FC8010E940E0CAF
:102FF000DA82C98242E050E0BE016F5F7F4FC801B4
:103000000E940E0CC8010E94F50F892B09F473CFA2
:10301000E3E0AE2EB12C230122E0420E511C0E94AF
:1030200020053B014C01C8010E947D0F18161906AE
:10303000A4F00E942005DC01CB0186199709A8099C
:10304000B90989389341A105B105D0F462E370E074
:1030500080E090E00E94E604E6CFF70142815381D0
:1030600064817581808D918DA28DB38D481759072C
:103070006A077B0749F4848D958DC59729F409C0AB
:10308000CC24CA94DC2C93C05EEFC52EDD24DA94E8
:103090008EC0F70181A192A10C970CF4E9C04CE01D
:1030A00050E0BE016F5F7F4FC8010E94350F8B81DA
:1030B0009C819827892798279A8B898BF7014681CD
:1030C000578129813A814217530709F0C2C097FFFF
:1030D000C0C08F709270892B09F0C0C06F80788457
:1030E0007624672476246114710409F4BCC0C12CD1
:1030F000D12C8D819E81982789279827C816D906BB
:1031000008F466C0812C912C41E050E0BE016D5E58
:103110007F4FC8010E94350F4B89842F807C09F0B6
:1031200076C0442331F050E060E070E0C8010E94B6
:10313000350F8B898111E8CF42E050E0BE01615F1D
:103140007F4FC8010E94350F42E050E0BE01635F2F
:103150007F4FC8010E94350F44E050E060E070E00E
:10316000C8010E94350F42E050E0BE016F5E7F4F04
:10317000C8010E94350F8F85988949895A89811520
:10318000914009F04DC0CD84DE84DC24CD24DC24C4
:1031900081E0C816D10409F043C04115544009F03C
:1031A00053C044E050E0B201C8010E94350F21E055
:1031B000A21AB10829F0FFEFCF16DF0609F42FCFCE
:1031C000C8010E94B810C60158C08EEF9FEF55C0CD
:1031D00041E050E0BE01635F7F4FC8010E94350FA0
:1031E0004D85442331F050E060E070E0C8010E945A
:1031F000350F8D858111ECCF44E050E060E070E048
:10320000C8010E94350FFFEFCF1ADF0A72CF41E0ED
:1032100050E060E070E0C8010E94350F1B8A89CF42
:1032200054274527542760E070E0C8010E94350FFD
:10323000FFEF8F1A9F0A6814790409F065CF96EFA3
:10324000C92EDD24DA94B3CF77EFC72EDD24DA94CC
:10325000AECF4CEFC42EDD24DA94A9CF3BEFC32EC2
:10326000DD24DA94A4CF2AEFC22EDD24DA949FCF96
:103270008DEFC82EDD24DA949ACF63960FB6F894BA
:10328000DEBF0FBECDBFDF91CF911F910F91FF9099
:10329000EF90DF90CF90BF90AF909F908F907F90F6
:1032A0006F905F904F900895FC0182E092E09183CF
:1032B000808312821382148215821386128648EE4E
:1032C00053E060E070E044875587668777872CE697
:1032D00031E031872087978B868B108E118E128E6E
:1032E000138E84E080A308958F929F92AF92BF9235
:1032F000CF92DF92EF92FF921F93CF93DF93CDB7E0
:10330000DEB72C970FB6F894DEBF0FBECDBF20916D
:103310005603222309F4B9C06B017C01CE0101964A
:103320000E947B1E89819A810E9444135E0127E0DE
:10333000A20EB11C450110E0812F0E94060DF40180
:1033400081934F018823C9F01F5F1430A9F710E063
:10335000F50181915F018D3159F0883149F08A5131
:10336000823030F01F5F143099F70E9443138DC0F4
:1033700060E170E0812F0E94E107A12EB12CF501E0
:10338000EE0FFF1FE55BFC4F1182108283EE93E08E
:103390000197F1F742E860E070E0812F0E94CA0CCB
:1033A0004FEF62E070E0812F0E94CA0CC114D1047B
:1033B00011F0B60113C08091280190912901019666
:1033C0008115F0EC9F0710F480E090EC90932901B8
:1033D000809328016091280170912901812F0E941A
:1033E0006C0C86E0E2E6F1E0DE01119601900D92B0
:1033F0008A95E1F7F70183818F778C8384818D83B0
:1034000085818E83A7014E5F5F4F24E030E06CE042
:1034100070E0812F0E947D0BB601812F0E94570C16
:1034200026E030E0AE014F5F5F4F66E070E0812F35
:103430000E947D0B61E070E0812F0E94E10727E090
:103440002A9DC0012B9D900D11249C01215D3C4FB4
:103450007901F9011182108222E030E0AE01455F6E
:103460005F4F68E270E0812F0E9431138B859C854D
:10347000982789279827F7019383828316821582DC
:1034800014820E944313812F01C084E02C960FB652
:10349000F894DEBF0FBECDBFDF91CF911F91FF909B
:1034A000EF90DF90CF90BF90AF909F908F90089556
:1034B000EF92FF920F931F93CF93DF93EC017B0169
:1034C0008A0188819981009729F02A813B812417FC
:1034D0003507F8F4B8016F5F7F4F0E94062E009702
:1034E00059F0998388831B830A832C813D81232B88
:1034F00081F4FC0110820DC088819981009711F040
:103500000E94362A198218821D821C821B821A820E
:1035100007C01D830C83B701888199810E94E12E29
:10352000CE01DF91CF911F910F91FF90EF90089501
:10353000DC01ED91FC910190F081E02D0994611581
:10354000710579F0FB0101900020E9F73197AF0197
:10355000461B570BDC01ED91FC910280F381E02DBD
:10356000099480E090E008958F929F92AF92BF926D
:10357000EF92FF920F931F93CF93DF93CDB7DEB7F8
:10358000A1970FB6F894DEBF0FBECDBF7C01FA0144
:10359000CB0119A2223008F42AE08E010F5D1F4FE3
:1035A000822E912CA12CB12CBF01A50194010E9467
:1035B0004A2CF901CA01015011096A3014F4605D06
:1035C00001C0695CD8016C93232B242B252B61F758
:1035D000B801C7010E949F1AA1960FB6F894DEBFEA
:1035E0000FBECDBFDF91CF911F910F91FF90EF9054
:1035F000BF90AF909F908F9008950C949F1ACF9298
:10360000DF92EF92FF920F931F93CF93DF93CDB78B
:10361000DEB7C654D1090FB6F894DEBF0FBECDBFDA
:10362000FC0182819381A481B58123968CAF9DAFEB
:10363000AEAFBFAF239721E023962FAF23972396FA
:103640004CAD5DAD6EAD7FAD23974BAB5CAB6DAB61
:103650007EAB89AF9AAFABAFBCAF8DA79EA7AFA72C
:10366000B8AB28AB4DA55EA56FA578A94FA358A709
:1036700069A77AA72EAB4BA95CA96DA97EA949A31E
:103680005AA36BA37CA38B8F9C8FAD8FBE8F42E020
:1036900052E05C8B4B8B3FEF3D8B3E8B3F8B188E0C
:1036A0005E874D872AA7CFA0D8A4E9A4FAA4CF8625
:1036B000D88AE98AFA8A2CA309A11AA12BA13CA1D4
:1036C00009871A872B873C875A8349838B839C837E
:1036D000AD83BE838091590381111EC160E372E006
:1036E00080E090E00E94E6041FB7F89480915803B0
:1036F000811127C0EAE8F1E08491EEE9F1E09491CC
:10370000E82FF0E0EE0FFF1FE459FE4FA591B491B2
:10371000EC91E92321F461E08AE00E947B0461E0FE
:103720008AE00E94AA048CB580618CBD8CB580644F
:103730008CBD61E08DE00E94AA0461E08BE00E94F4
:10374000AA04809158038F5F809358031FBFEAE853
:10375000F1E0E491F0E0EE0FFF1FEE59FE4F85918E
:1037600094919093550380935403EEE9F1E0E49132
:10377000E093530361E08AE00E94AA040E94790961
:10378000CE018D5B9F4F0E947B1E25968EAD9FAD17
:1037900025970E94441384E3809356030E94780A7D
:1037A000882319F188E00E94650A0E948E098830FA
:1037B000E1F480E10E94650A0E948E098031A9F43B
:1037C00080E00E94650A0E948E0981110EC041E0CE
:1037D00050E0BE016D5B7F4F8FE190E00E94F107EA
:1037E00024968FAD24978330B1F187E380935603FD
:1037F0000E94780A882309F451C088E00E94650A73
:103800000E948E09883009F049C080E10E94650A53
:103810000E948E09182F803109F040C080E00E947C
:10382000650A0E948E09811139C041E050E0BE0155
:103830006D5B7F4F89E390E00E94F10724968FAD86
:103840002497843059F5109357030E94431381E065
:103850008093590361C080E48093570310E042E0F5
:103860006EE170E0812F0E94CA0C42E06FE170E0CF
:10387000812F0E94CA0C1F5F143089F740E06EE16F
:1038800070E0812F0E94CA0C40E06FE170E0812F50
:103890000E94CA0C1F5F183089F7D7CF83E380934B
:1038A00056030E94780A882391F180E10E94650AFC
:1038B0000E948E09803159F582E10E94650A0E94BA
:1038C0008E09823121F580E00E94650A0E948E09EE
:1038D00081111DC084E08093570315E527961FAF23
:1038E000279741E050E0BE016A5B7F4F8BE190E09B
:1038F0000E94A80926961FAF269741E050E0BE011E
:103900006B5B7F4F8AE190E00E94A8099ECF1092E6
:1039100056030E9443133EC0CE018D5B9F4F0E9411
:103920007B1E25968EAD9FAD25970E94441346E0E1
:1039300050E06AE971E089E090E00E94A80944E063
:1039400050E0BE016D5F7F4F8FE090E00E94A809BC
:1039500044E050E0BE01615F7F4F81E090E00E9453
:10396000A80944E050E0BE016B5E7F4F85E090E027
:103970000E94A8090E94431381E08C8789859A855B
:10398000AB85BC858093050490930604A09307043F
:10399000B0930804CA5BDF4F0FB6F894DEBF0FBECA
:1039A000CDBFDF91CF911F910F91FF90EF90DF90EE
:1039B000CF900895CF93DF9300D000D000D0CDB743
:1039C000DEB722E032E03A832983FC0182819381D1
:1039D000A481B5818B839C83AD83BE83CE01019688
:1039E0000E94FF1A8CE594E00E94471326960FB6BA
:1039F000F894DEBF0FBECDBFDF91CF9108950F9336
:103A00001F93CF93DF938C01EB0186E090E00E943F
:103A10009E29FC0111830083D383C2831582148203
:103A20008091540490915504892B29F4F093550406
:103A3000E093540408C0A0915604B0915704159621
:103A4000FC93EE931497F0935704E0935604DF91A0
:103A5000CF911F910F9108950F931F93CF93DF93F1
:103A60008C01C0E0D0E0F801EC0FFD1F64916623EB
:103A700041F08AE593E00E946901892B11F02196BB
:103A8000F2CFCE01DF91CF911F910F910895CF9387
:103A9000DF93CDB7DEB728970FB6F894DEBF0FBE21
:103AA000CDBF98E0E2E9F1E0DE01119601900D92C0
:103AB0009A95E1F790919204961710F46FEF690FC1
:103AC000FE013196E60FF11DE60FF11D6081680FD2
:103AD000606840E08AE894E028960FB6F894DEBF6C
:103AE0000FBECDBFDF91CF910C949B07DC01ED9110
:103AF000FC91309749F0808191818617970739F0C2
:103B00000480F581E02DF5CF80E090E00895CF01AD
:103B100008950E94761D009721F0FC018281938117
:103B2000089580E090E00895CF93DF93EA016F5B02
:103B300073460E94761D009729F0FC01D383C2834F
:103B400081E001C080E0DF91CF910895909143041E
:103B5000E0914404F0914504292F209580FF12C084
:103B6000F8948281822382838181892B8183A3E2DD
:103B7000B0E01197F1F78281982B9283789487EDCA
:103B800090E011C0F8948281822382838181892B05
:103B90008183AFEFB0E01197F1F78281982B928388
:103BA00078948FE090E00197F1F70895FF920F93DA
:103BB0001F93CF93DF93F82E062FC8E0D0E011E0DB
:103BC00081E09F2D912309F480E00E94A61D110F32
:103BD0002197B1F7011116C0F894E0914404F091D7
:103BE0004504918180914304809589238183E091EC
:103BF0004404F09145049281809143048095892387
:103C000082837894DF91CF911F910F91FF90089557
:103C100020914304E0914404F0914504F89481819B
:103C2000922F90958923818378948DE743E050E02B
:103C3000815021F1DA011197F1F730813223C1F37C
:103C4000F8948281892382838181822B8183789475
:103C5000ABE7B7E01197F1F7F8948181982391834E
:103C600083E191E00197F1F78081282381E009F059
:103C700080E07894E3E6F6E03197F1F70895CF938A
:103C8000DF930E94081E60E08CEC0E94D61DC7E303
:103C9000D4E06B8584E40E94D61D0E9420056C83CD
:103CA0007D838E839F83DF91CF910895909143040C
:103CB000E0914404F0914504F8948181892B81833B
:103CC0002281892F809528232283A7E0B0E01197D5
:103CD000F1F7218182238183A3E2B0E01197F1F70C
:103CE00080817894EFECF0E03197F1F7982381E050
:103CF00009F480E0089520E5FC01208321E0218380
:103D00000895CF93DF93CDB7DEB769970FB6F894D8
:103D1000DEBF0FBECDBF789484B5826084BD84B50C
:103D2000816084BD85B5826085BD85B5816085BDB6
:103D300080916E00816080936E001092810080916E
:103D400081008260809381008091810081608093F6
:103D50008100809180008160809380008091B1001B
:103D600084608093B1008091B00081608093B00046
:103D700080917A00846080937A0080917A008260DA
:103D800080937A0080917A00816080937A0080919C
:103D90007A00806880937A001092C100E0916A03F3
:103DA000F0916B0382E08083E0916603F0916703FA
:103DB0001082E0916803F091690380E180831092A2
:103DC0007203E0916E03F0916F0386E08083E091CF
:103DD0006C03F0916D03808180618083E0916C03BE
:103DE000F0916D03808188608083E0916C03F09195
:103DF0006D03808180688083E0916C03F0916D0396
:103E000080818F7D80836CE271E080E090E00E9491
:103E1000E60481ED90E00E942C1D6AE072E08AE5E4
:103E200093E00E949F1A62E087E00E94AA046091DA
:103E30007D0470E06F5F7F4F80917E0490917F04DE
:103E40000E94062E9C0190937F0480937E049091A3
:103E50007D04F901E90FF11D87E080839F5F909356
:103E60007D0488E08093810489E08093820460E08F
:103E700088E00E94AA0460E0809182040E94AA0463
:103E80006DE072E08AE593E00E94FD1AFAE9EF2EF8
:103E9000F1E0FF2E670110E0D6014D916D0150E079
:103EA00060E070E020E18AE593E00E94B41A1530EA
:103EB00029F06AE38AE593E00E94981A1F5F1630A2
:103EC00059F76AE072E08AE593E00E949F1A8091B8
:103ED000300190913101A0913201B091330122E083
:103EE00032E03A8329838B839C83AD83BE838E012A
:103EF0000F5F1F4FC8010E94DA1C88E690E00E9405
:103F00002C1DC8010E94C5146AE573E0C8010E9417
:103F1000B2036AE072E08AE593E00E949F1A80E0B3
:103F200090E0A8E4BDE38093300490933104A09323
:103F30003204B093330483EE95EAABE9BEE3809399
:103F40002C0490932D04A0932E04B0932F0460E0D2
:103F5000809134040E94AA0480910F0461E00E94C1
:103F6000AA0430910F042BB181E090E002C0880FC9
:103F7000991F3A95E2F78095909582238BB980E45A
:103F800080937C0090917C0080913504892B8093F4
:103F90006A0290917C0080913604892B809369029B
:103FA00080916A0280937C0081E080937902109274
:103FB00068028FEE80937A0080E880BF10928000C4
:103FC0001092810082E08093810088E39AE49093CC
:103FD0006C0280936B0280916B0290916C029093C3
:103FE0008900809388008CE29CE490938B008093FE
:103FF0008A0080916F00826080936F0080916F00D3
:10400000846080936F0080913404823019F0833093
:10401000A9F4E2C680E0E82FF0E0EE0FFF1FE050C9
:10402000FF4F21E332E031832083813009F4D6C68B
:1040300080916900836080936900E89A8EEE92E037
:1040400090935304809352040E94E31583E990E017
:104050000E942C1D2AE040E052E060E070E08AE51A
:1040600093E00E94B41A84E890E00E942C1D4091D5
:10407000360450E060E070E02AE08AE593E00E94B8
:10408000B41A85E790E00E942C1D4091350450E061
:1040900060E070E02AE08AE593E00E94B41A6AE0EA
:1040A00072E08AE593E00E949F1A8DEA90E00E94F8
:1040B0002C1D4091510450E060E070E02AE08AE558
:1040C00093E00E94B41A6AE072E08AE593E00E94ED
:1040D0009F1A68EB7BE080E090E00E94E6040E947B
:1040E000E41660E080E00E94471DB12CF701819149
:1040F0007F01198A188A1B8A1A8A1D8A1C8A40E144
:10410000B80190E00E94BF2AF80101900020E9F771
:104110003197AF01401B510BB801CE0140960E9470
:10412000581A8C899D89009711F4198213C002973F
:1041300020F4CC24C394D12C03C072E0C72ED12C20
:1041400068897989A601C8010E94E82EF801EC0D62
:10415000FD1D1082B8018AE894E00E94FD1AF5E086
:10416000BF1629F06AE38AE894E00E94981A8889C9
:1041700099890E94362AB39426E0B212B7CF61E043
:1041800080E00E94471D6E0133E0C30ED11CF12C6C
:10419000C8010E94C514D6014D916D0150E060E048
:1041A00070E02AE08AE894E00E94B41AB3E0FB16BB
:1041B00031F063E172E08AE894E00E94FD1AF39422
:1041C000E4E0FE12E5CF0E94200560938C0270931C
:1041D0008D0280938E0290938F0281E49CE90E946D
:1041E000FF1C60E070E082E49CE90E94FF1C60E03C
:1041F00070E083E49CE90E94FF1C60E070E084E4CE
:104200009CE90E94FF1C60E070E085E49CE90E944C
:10421000FF1C60E070E086E49CE90E94FF1C60E007
:1042200070E088E49CE90E94FF1C60E070E089E493
:104230009CE90E94FF1C86EC90E00E942C1D80915E
:10424000CD049091CE04009711F481ED94E06801C3
:10425000C81AD90A0D2C000CEE08FF08F7FE0EC094
:104260006DE28AE593E00E94981A44275527BA0127
:104270004C195D096E097F092AE003C02AE0B701E5
:10428000A6018AE593E00E94B41A6AE072E08AE52A
:1042900093E00E949F1A68EB7BE080E090E00E9430
:1042A000E6040E94E41668EE262E63E0362E412CCA
:1042B000512C9E01265F3F4F3F8B2E8B80917A02BF
:1042C000882309F4B1C010927A0280917902882380
:1042D00091F16091750270917602809177029091D0
:1042E0007802E0907302F09074020E94E92A4B0178
:1042F0005C01B70180E090E00E94E92A9B01AC01DB
:10430000C501B4010E94FE2C0E94B12D9B01AC019D
:1043100060912C0470912D0480912E0490912F04B3
:104320000E944A2B609320047093210480932204FE
:104330009093230431C060916F027091700280915C
:10434000710290917202E0906D02F0906E020E94F4
:10435000E92A4B015C01B70180E090E00E94E92A64
:104360009B01AC01C501B4010E94FE2C0E94B12D3D
:104370009B01AC0160913004709131048091320452
:10438000909133040E944A2B60931C0470931D0487
:1043900080931E0490931F042091200430912104E7
:1043A000409122045091230460911C0470911D04DB
:1043B00080911E0490911F040E944A2B0E94772D29
:1043C00070932704609326042091280430912904D7
:1043D00021153105D9F04091240450912504DA01CA
:1043E000A21BB30BAD01460F571F4A3051053CF0DD
:1043F0004933BAE45B072CF048E35AE402C04AE0D0
:1044000050E0509325044093240406C0E8E3FAE406
:10441000F0932504E09324048091240490912504D2
:1044200090936C0280936B026CE574E0C8010E946B
:104430005F128D85843008F097C1C8010E942D114C
:10444000882309F491C122E634E0398F288F79015D
:10445000C8010E945011892B51F48091670481504A
:1044600080935A049091640491117EC10CC0C801DC
:104470000E94AF11D7018D937D01E9E6F4E0EA17C0
:10448000FB0731F7EACF9091650491116DC1893C2A
:1044900008F06AC190E00E949E299093590480938D
:1044A0005804E12CF12CC8010E945011892BF9F419
:1044B000C0905804D0905904D601BC9011966D90CC
:1044C0007C9012977624672476241396ED90FC90C6
:1044D0001497FE24EF24FE24B6E0BB16E9F0E0E1D9
:1044E000BE1609F48AC0F3E0BF12E9C030C0C09024
:1044F0005804D0905904CE0CDF1CC8010E94AF11A3
:10450000D6018C93BFEFEB1AFB0A80915A0490E01E
:10451000E816F90641F6CCCFA701B30184E594E093
:104520000E94941D811102C062E00BC0B3016F5B59
:10453000734684E594E00E94891DE816F90619F097
:1045400064E086E0BEC0E2E0E0935B04BCC0C7016B
:1045500001978D37910510F063E00CC0FFEB6F1AE7
:10456000F3E67F0AB30184E594E00E94761D892B6F
:1045700019F462E083E0A5C0C6010E94362AC70193
:104580000196D82EDD0CD0925A048D2D90E00E9419
:104590009E299093590480935804009711F464E085
:1045A000E9CFDC01BC92DA94DA941196DC9253E004
:1045B000C52ED12CB1E0EB1AF108D8F0B30184E597
:1045C00094E00E94891DE0915804F0915904EC0D8B
:1045D000FD1D31979083E0915804F0915904EC0D42
:1045E000FD1D8083FFEF6F1A7F0A22E0C20ED11CEF
:1045F000E1CF83E080935B0466C0C70101978B37EE
:10460000910590F4D60115968C9190E09701220FB8
:10461000331F8217930741F4A12CB12C4301BFEB48
:104620008B1AB3E69B0A08C063E023C0EFEFAE1A13
:10463000BE0AAE14BF0459F0B4016A0D7B1D84E5B7
:1046400094E00E94761D892B89F762E012C0C601B2
:104650000E94362AF5E0F0935A0485E090E00E942B
:104660009E29FC019093590480935804892B19F4D6
:1046700064E080E126C080E18083718262821382DF
:10468000E482A12CB12C22E0C20ED11CEA14FB045E
:1046900009F4AFCFD60114964C91149750E0542FE3
:1046A000442715968C91482BB3016A0D7B1D84E538
:1046B00094E00E94941DBFEFAB1ABB0AE4CF61E007
:1046C0008B2D0E94C51680915B04813009F444C093
:1046D000CDB6DEB620915A04822F90E0AC014F5F38
:1046E0005F4F509366042F5F209367044A5F5F4FCC
:1046F000EDB7FEB7E41BF50B0FB6F894FEBF0FBE87
:10470000EDBF6DB77EB76F5F7F4FDB01ADB6BEB655
:10471000F8E0AF0EB11CE88DF98D2191F98FE88F8B
:104720002D93AA16BB06B9F720915804309159046D
:10473000D9017D01E21AF30AE816F9062CF4FD907E
:10474000F501F1925F01F5CFC8010E94EA100FB6A2
:10475000F894DEBE0FBECDBE8091580490915904EE
:104760000E94362A10925A040E9420056B017C0197
:10477000B12C80917D04B81668F4E0917E04F0912C
:104780007F04EB0DF11D80810E945204892B11F0F2
:10479000B394EFCF80918502B81679F0B09285027C
:1047A000D701C6014E96A11DB11D80936D04909353
:1047B0006E04A0936F04B093700480916D04909187
:1047C0006E04A0916F04B09170040097A105B1052B
:1047D00009F462C0C816D906EA06FB0608F45CC0F4
:1047E00010926D0410926E0410926F041092700477
:1047F00080917D04B81225C080917104909172045B
:10480000A0917304B0917404C816D906EA06FB0699
:1048100018F481E080936A0410927104109272047B
:10482000109273041092740410927504109276041E
:10483000109277041092780410926B0410926C041A
:104840002BC08091830490918404A7019601280FC6
:10485000391F411D511D2093710430937204409300
:10486000730450937404B0926904D701C601C296D0
:10487000A11DB11D8093790490937A04A0937B04C9
:10488000B0937C040E942005609385047093860495
:1048900080938704909388048091710490917204AE
:1048A000A0917304B09174040097A105B10561F162
:1048B000C816D906EA06FB0638F110927104109268
:1048C0007204109273041092740481E080936B045C
:1048D000D701C60184549D4FAF4FBF4F80937504DD
:1048E00090937604A0937704B0937804D701C6011F
:1048F0008A569F4FAF4FBF4F8093790490937A04AD
:10490000A0937B04B0937C0480917504909176040D
:10491000A0917704B09178040097A105B10581F0CA
:10492000C816D906EA06FB0658F0109275041092D4
:104930007604109277041092780481E080936C04DE
:10494000809180048F3FB9F061E08090790490906D
:104950007A04A0907B04B0907C04C814D904EA04C3
:10496000FB0408F060E090918402691721F06093E5
:1049700084020E947B0480918302882309F464C02E
:10498000809181040E9452046C01BB24B394892B52
:1049900009F4B12C809182040E9452047C01CD283C
:1049A00009F050C080918702882309F44BC0DD24B0
:1049B000D394E114F10409F4D12C0E942005209134
:1049C0008504309186044091870450918804DC016D
:1049D000CB01821B930BA40BB50B4497A105B1052A
:1049E00020F480918602D8122FC0EF2809F0FDC173
:1049F0008FEF80938904D09286020E942005C09098
:104A00008504D0908604E0908704F0908804DC014F
:104A1000CB018C199D09AE09BF090A97A105B10503
:104A200008F0E5C180918904880F880F809389047C
:104A30000E94200560938504709386048093870408
:104A400090938804B09287024091260450912704E5
:104A500063E070E084E594E00E94941D0E942005CC
:104A6000C0908C02D0908D02E0908E02F0908F0268
:104A7000DC01CB018C199D09AE09BF098F3E924024
:104A8000A105B10508F4F6C00E94200520913B0461
:104A900030913C047B01E21AF30A8091410488239F
:104AA00009F4D8C10E94561E813009F0D3C134C226
:104AB00089858E136FC269817A81072E000C880B5D
:104AC000990B0E94EB2A20E030E040E85DE30E9471
:104AD0004A2B609337047093380480933904909381
:104AE0003A04F0924004E0923F0420E030E04CE5CC
:104AF00052EC6091370470913804809139049091A0
:104B00003A040E94A62D18160CF0B9C10E943F1E4F
:104B1000C0903704D0903804E0903904F0903A0403
:104B2000C701B6010E94702D7093820260938102CA
:104B3000072E000C880B990B0E94EB2A9B01AC01FD
:104B4000C701B6010E94912C20E030E040E251E420
:104B50000E944A2B0E94702D7093800260937F0206
:104B60000E9420054B015C0160938C0270938D02C2
:104B700080938E0290938F0220E030E048EC52E464
:104B8000C701B6010E944A2B6B017C0120E030E096
:104B9000A9010E94A62D20E030E040E05FE387FD00
:104BA00071C1C701B6010E94922C0E94702DAB0109
:104BB00061E070E084E594E00E94941D40913F0420
:104BC0005091400464E070E084E594E00E94941DFC
:104BD000409124045091250465E070E084E594E060
:104BE0000E94941D60912004709121048091220400
:104BF000909123040E94772DAB0167E070E084E57B
:104C000094E00E94941D20E030E04AE754E4609173
:104C10001C0470911D0480911E0490911F040E9439
:104C20004A2B0E94772DAB0168E070E084E594E0A8
:104C30000E94941D80910501811129C180917D02FE
:104C400090917E0220912A0430912B042817390775
:104C500008F055C13093290420932804409128047A
:104C60005091290462E070E084E594E00E94941D74
:104C70000E94EF140E942005C0908802D090890203
:104C8000E0908A02F0908B02DC01CB018C199D0927
:104C9000AE09BF098B3F9105A105B10508F499C084
:104CA0000E942005609388027093890280938A0293
:104CB00090938B0280916A0410926A04882351F1C8
:104CC0008091050181111CC09091830281E08927A8
:104CD0008093830280918302882349F080917D0232
:104CE00090917E0290937C0280937B0213C080910E
:104CF0007B0290917C0290937E0280937D020AC099
:104D000061E080E00E94471D65E172E08AE894E07E
:104D10000E94FD1A80916B0410926B04882381F02D
:104D20001092830210927C0210927B0210927E02FB
:104D300010927D029091050181E089278093050101
:104D400080918904882349F190918302992319F174
:104D500032E38302A0011124082E000C990B97FF67
:104D600003C0919581959109489F9001499F300D0D
:104D7000589F300D112480917B0290917C02820F0C
:104D8000931F8D3A4DE0940710F08CEA9DE09093CC
:104D90007C0280937B0210928904C0908504D0909D
:104DA0008604E0908704F090880450E1C50E57E235
:104DB000D51EE11CF11C0E942005C616D706E80688
:104DC000F90610F4109283028091830281110E94EF
:104DD000EF140E94D80172CA81E01DC98091690058
:104DE0008C6080936900E99A29C981E002CE0E9413
:104DF0002005C0908504D0908604E0908704F09050
:104E00008804DC01CB018C199D09AE09BF094E97BE
:104E1000A105B10530F480918904982F990F890F6D
:104E200005CE0E942005C0908504D0908604E090B5
:104E30008704F0908804DC01CB018C199D09AE0930
:104E4000BF09C297A105B10508F0F2CD8091890490
:104E5000880FECCD80915204909153048E159F05DC
:104E600008F056CE20E030E044EA52EC20933704BC
:104E7000309338044093390450933A0436CE0E945C
:104E8000E31546CEC701B6010E94912C8ECE61E497
:104E90007CE984E594E00E94891D892B21F48091AE
:104EA0000501811181C061E47CE984E594E00E9400
:104EB000891D7C01C501B401A20191010E944A2C07
:104EC0002E193F092634310520F481E08093040136
:104ED00002C01092040180910401882359F063E418
:104EE0007CE984E594E00E94891D90937E02809382
:104EF0007D02A4CE10927E0210927D029FCE82335C
:104F0000910528F41092290410922804A7CE9093BA
:104F1000290480932804A2CE0E94081E882309F445
:104F20003EC060E08CEC0E94D61D60E08EEB0E94DB
:104F3000D61D4801680128E0A22EB12C712C6624F0
:104F400063940E94561E81117628660C41E0A41AD3
:104F5000B108B9F7D6017D926D01EE89FF89EA1794
:104F6000FB0749F799E0E0E0915009F4A1CDD401A5
:104F70008D914D018E27E82FEF70F0E0E25DFE4F3E
:104F80002491E82FE295EF70F0E0E25CFE4FE491AF
:104F9000E227EACF60E070E08EE892EC9ACD60E024
:104FA00070E08CE692EC95CDC501B401A2019101AF
:104FB0000E944A2CA90160E070E084E594E00E9420
:104FC000941D71CF80911004909111040E94362A93
:104FD00080911604909117040C94362A10925D0368
:104FE00010925C0388EE93E0A0E0B0E080935E0353
:104FF00090935F03A0936003B093610324EA31E0D0
:1050000030935B0320935A0325EC30E03093670321
:105010002093660324EC30E0309369032093680307
:1050200020EC30E030936B0320936A0321EC30E0F6
:1050300030936D0320936C0322EC30E030936F03C8
:1050400020936E0326EC30E03093710320937003BD
:1050500010927303109274031092750310927603EA
:105060001092FA031092F9038093FB039093FC03D0
:10507000A093FD03B093FE0388EC91E09093F803B6
:105080008093F70382E092E090939E0480939D04C6
:1050900010929F041092A0041092A1041092A204F6
:1050A0009093A4048093A3041092A5041092A604E4
:1050B0001092A7041092A8049093AA048093A904C4
:1050C0001092AB041092AC041092AD041092AE0496
:1050D0009093B0048093AF041092B1041092B20484
:1050E0001092B3041092B4049093B6048093B50464
:1050F0001092B7041092B8041092B9041092BA0436
:105100009093BC048093BB041092BD041092BE0423
:105110001092BF041092C0049093C2048093C10403
:105120001092C3041092C4041092C5041092C604D5
:1051300090930404809303041092050410920604D3
:10514000109207041092080490930A0480930904B3
:1051500010920B0410920C0410920D0410920E0485
:105160009093C8048093C7041092C9041092CA0493
:105170001092CB041092CC049093980480939704DF
:105180001092990410929A0410929B0410929C041D
:1051900010928D0410928C048AEE91E090938B040F
:1051A00080938A04109293048FE380938E0480E1AD
:1051B0008093940482E08093950410929604109258
:1051C0006A0410926B0410926C0410926D04109299
:1051D0006E0410926F041092700410927104109279
:1051E0007204109273041092740410927504109259
:1051F0007604109277041092780410927904109239
:105200007A0410927B0410927C0410927D04109218
:10521000800410928104109282048CEB92E09093AF
:105220008404809383040E94200560938504709316
:1052300086048093870490938804109289048FEFEA
:1052400080938004109255041092540410925704D5
:105250001092560410925F0410925E048AED91E061
:1052600090935D0480935C0486EF91E090936104D9
:105270008093600460E086E00E94AA04EAE9F1E01D
:10528000E491E0934304E6E8F1E0E491F0E0EE0F0E
:10529000FF1FEA58FE4F85919491909345048093A7
:1052A000440410924E041092500410924F04EEE405
:1052B000F4E0129284E0E634F807D9F786E08093B0
:1052C000510410922904109228048CEA9DE09093D6
:1052D0002B0480932A0483E08093340485E0809338
:1052E0000F0481E080933504109236041092170465
:1052F00010921604109219041092180410921B04B4
:1053000010921A0440E050E06CE072E086E194E014
:105310000E94581A10921104109210041092130453
:1053200010921204109215041092140440E050E000
:105330006CE072E080E194E00C94581A0F931F9394
:10534000CF93DF938230910510F482E090E0E091FA
:10535000CF04F091D00420E030E0A0E0B0E030973E
:1053600019F1408151810281138148175907C8F012
:105370008417950769F4109731F012960C931297E1
:1053800013961C9327C00093CF041093D00422C01F
:105390002115310519F04217530718F49A01BD0180
:1053A000EF01DF01F801DBCF21153105F9F0281BF2
:1053B000390B2430310580F48A819B816115710598
:1053C00021F0FB019383828304C09093D0048093E7
:1053D000CF04FE01329644C0FE01E20FF31F819319
:1053E000919322503109398328833AC02091CD040A
:1053F0003091CE04232B41F420912C0130912D01CA
:105400003093CE042093CD0420912A0130912B01BA
:105410002115310541F42DB73EB740912E01509131
:105420002F01241B350BE091CD04F091CE04E2173F
:10543000F307A0F42E1B3F0B2817390778F0AC01B7
:105440004E5F5F4F2417350748F04E0F5F1F509394
:10545000CE044093CD048193919302C0E0E0F0E04C
:10546000CF01DF91CF911F910F910895CF93DF93DB
:10547000009709F481C0FC01329713821282A09137
:10548000CF04B091D004109781F420813181820F34
:10549000931F2091CD043091CE042817390751F580
:1054A000F093CE04E093CD0467C0ED0120E030E03E
:1054B000CE17DF0740F44A815B819E0141155105FB
:1054C000F1F0EA01F5CFD383C28340815181840F8B
:1054D000951FC817D90759F488819981840F951FA2
:1054E0000296918380838A819B8193838283211595
:1054F000310529F4F093D004E093CF043DC0E901D5
:10550000FB83EA8349915991C40FD51FEC17FD071E
:1055100061F480819181840F951F0296E90199833E
:105520008883828193819B838A83E0E0F0E01296F6
:105530008D919C911397009719F0FD01DC01F7CF35
:105540008D919C9111979D012E5F3F4F820F931F6C
:105550002091CD043091CE042817390769F4309793
:1055600029F41092D0041092CF0402C01382128248
:10557000B093CE04A093CD04DF91CF910895BB27C3
:10558000FB015527AA27880F991FAA1FA41710F0FF
:10559000A41B83955051B9F7A05DAA3308F0A95D0B
:1055A000A193009779F7B111B1931192CB010C94AB
:1055B000D92ADC01FC01672F71917723E1F732973B
:1055C00004C07C916D9370836291AE17BF07C8F3DE
:1055D0000895E89409C097FB3EF4909580957095E6
:1055E00061957F4F8F4F9F4F9923A9F0F92F96E92F
:1055F000BB279395F695879577956795B795F111A4
:10560000F8CFFAF4BB0F11F460FF1BC06F5F7F4F40
:105610008F4F9F4F16C0882311F096E911C0772352
:1056200021F09EE8872F762F05C0662371F096E85B
:10563000862F70E060E02AF09A95660F771F881F2A
:10564000DAF7880F9695879597F90895990F0008CE
:10565000550FAA0BE0E8FEEF16161706E807F90744
:10566000C0F012161306E407F50798F0621B730BDF
:10567000840B950B39F40A2661F0232B242B252B60
:1056800021F408950A2609F4A140A6958FEF811D03
:10569000811D08950E945D2B0C94CE2B0E94C02B7F
:1056A00038F00E94C72B20F0952311F00C94B72BF3
:1056B0000C94BD2B11240C94022C0E94DF2B70F350
:1056C000959FC1F3950F50E0551F629FF001729FA7
:1056D000BB27F00DB11D639FAA27F00DB11DAA1FB6
:1056E000649F6627B00DA11D661F829F2227B00D03
:1056F000A11D621F739FB00DA11D621F839FA00D8E
:10570000611D221F749F3327A00D611D231F849FDD
:10571000600D211D822F762F6A2F11249F57504034
:105720009AF0F1F088234AF0EE0FFF1FBB1F661FAF
:10573000771F881F91505040A9F79E3F510580F078
:105740000C94B72B0C94022C5F3FE4F3983ED4F3F7
:10575000869577956795B795F795E7959F5FC1F71C
:10576000FE2B880F911D9695879597F9089597F9C7
:105770009F6780E870E060E008959FEF80EC0895F7
:1057800000240A9416161706180609060895002420
:105790000A9412161306140605060895092E03949A
:1057A000000C11F4882352F0BB0F40F4BF2B11F40E
:1057B00060FF04C06F5F7F4F8F4F9F4F089557FD6D
:1057C0009058440F551F59F05F3F71F04795880F6F
:1057D00097FB991F61F09F3F79F087950895121606
:1057E00013061406551FF2CF4695F1DF08C01616B2
:1057F00017061806991FF1CF869571056105089463
:105800000895E894BB2766277727CB0197F9089579
:105810000E946C2CA59F900DB49F900DA49F800DAD
:10582000911D112408952F923F924F925F926F9293
:105830007F928F929F92AF92BF92CF92DF92EF9220
:10584000FF920F931F93CF93DF93CDB7DEB7CA1BA1
:10585000DB0B0FB6F894DEBF0FBECDBF09942A88CC
:10586000398848885F846E847D848C849B84AA8474
:10587000B984C884DF80EE80FD800C811B81AA8101
:10588000B981CE0FD11D0FB6F894DEBF0FBECDBFCC
:10589000ED010895A1E21A2EAA1BBB1BFD010DC04C
:1058A000AA1FBB1FEE1FFF1FA217B307E407F507D0
:1058B00020F0A21BB30BE40BF50B661F771F881FAC
:1058C000991F1A9469F760957095809590959B0142
:1058D000AC01BD01CF010895A29FB001B39FC001EB
:1058E000A39F700D811D1124911DB29F700D811D0C
:1058F0001124911D0895DB018F939F930E94082C22
:10590000BF91AF91A29F800D911DA39F900DB29F5B
:10591000900D11240895EE0FFF1F0590F491E02DD6
:1059200009945058BB27AA270E94A92C0C94CE2B6F
:105930000E94C02B38F00E94C72B20F039F49F3F03
:1059400019F426F40C94BD2B0EF4E095E7FB0C94AF
:10595000B72BE92F0E94DF2B58F3BA1762077307A2
:105960008407950720F079F4A6F50C94012C0EF429
:10597000E0950B2EBA2FA02D0B01B90190010C015F
:10598000CA01A0011124FF27591B99F0593F50F477
:10599000503E68F11A16F040A22F232F342F4427CF
:1059A000585FF3CF469537952795A795F0405395C7
:1059B000C9F77EF41F16BA0B620B730B840BBAF097
:1059C0009150A1F0FF0FBB1F661F771F881FC2F702
:1059D0000EC0BA0F621F731F841F48F48795779516
:1059E0006795B795F7959E3F08F0B0CF9395880FD0
:1059F00008F09927EE0F9795879508950E94122D2C
:105A00000C94CE2B0E94C72B58F00E94C02B40F064
:105A100029F45F3F29F00C94B72B51110C94022C00
:105A20000C94BD2B0E94DF2B68F39923B1F355230F
:105A300091F3951B550BBB27AA27621773078407A1
:105A400038F09F5F5F4F220F331F441FAA1FA9F337
:105A500035D00E2E3AF0E0E832D091505040E69525
:105A6000001CCAF72BD0FE2F29D0660F771F881F86
:105A7000BB1F261737074807AB07B0E809F0BB0B79
:105A8000802DBF01FF2793585F4F3AF09E3F51058D
:105A900078F00C94B72B0C94022C5F3FE4F3983E03
:105AA000D4F3869577956795B795F7959F5FC9F776
:105AB000880F911D9695879597F90895E1E0660FF7
:105AC000771F881FBB1F621773078407BA0720F070
:105AD000621B730B840BBA0BEE1F88F7E0950895D9
